{
  "_format": "hh-sol-artifact-1",
  "contractName": "QuestEscrowReference",
  "sourceName": "contracts/reference/QuestEscrowReference.sol",
  "abi": [
    {
      "inputs": [],
      "stateMutability": "nonpayable",
      "type": "constructor"
    },
    {
      "inputs": [
        {
          "internalType": "address",
          "name": "owner",
          "type": "address"
        }
      ],
      "name": "OwnableInvalidOwner",
      "type": "error"
    },
    {
      "inputs": [
        {
          "internalType": "address",
          "name": "account",
          "type": "address"
        }
      ],
      "name": "OwnableUnauthorizedAccount",
      "type": "error"
    },
    {
      "inputs": [],
      "name": "ReentrancyGuardReentrantCall",
      "type": "error"
    },
    {
      "inputs": [
        {
          "internalType": "address",
          "name": "token",
          "type": "address"
        }
      ],
      "name": "SafeERC20FailedOperation",
      "type": "error"
    },
    {
      "anonymous": false,
      "inputs": [
        {
          "indexed": true,
          "internalType": "address",
          "name": "previousOwner",
          "type": "address"
        },
        {
          "indexed": true,
          "internalType": "address",
          "name": "newOwner",
          "type": "address"
        }
      ],
      "name": "OwnershipTransferred",
      "type": "event"
    },
    {
      "anonymous": false,
      "inputs": [
        {
          "indexed": true,
          "internalType": "uint256",
          "name": "questId",
          "type": "uint256"
        },
        {
          "indexed": true,
          "internalType": "address",
          "name": "worker",
          "type": "address"
        }
      ],
      "name": "QuestAccepted",
      "type": "event"
    },
    {
      "anonymous": false,
      "inputs": [
        {
          "indexed": true,
          "internalType": "uint256",
          "name": "questId",
          "type": "uint256"
        }
      ],
      "name": "QuestCancelled",
      "type": "event"
    },
    {
      "anonymous": false,
      "inputs": [
        {
          "indexed": true,
          "internalType": "uint256",
          "name": "questId",
          "type": "uint256"
        },
        {
          "indexed": true,
          "internalType": "address",
          "name": "worker",
          "type": "address"
        },
        {
          "indexed": false,
          "internalType": "uint256",
          "name": "payout",
          "type": "uint256"
        }
      ],
      "name": "QuestCompleted",
      "type": "event"
    },
    {
      "anonymous": false,
      "inputs": [
        {
          "indexed": true,
          "internalType": "uint256",
          "name": "questId",
          "type": "uint256"
        },
        {
          "indexed": true,
          "internalType": "address",
          "name": "poster",
          "type": "address"
        },
        {
          "indexed": false,
          "internalType": "uint256",
          "name": "reward",
          "type": "uint256"
        }
      ],
      "name": "QuestCreated",
      "type": "event"
    },
    {
      "anonymous": false,
      "inputs": [
        {
          "indexed": true,
          "internalType": "uint256",
          "name": "questId",
          "type": "uint256"
        },
        {
          "indexed": true,
          "internalType": "address",
          "name": "recipient",
          "type": "address"
        }
      ],
      "name": "QuestRefunded",
      "type": "event"
    },
    {
      "anonymous": false,
      "inputs": [
        {
          "indexed": true,
          "internalType": "uint256",
          "name": "questId",
          "type": "uint256"
        },
        {
          "indexed": false,
          "internalType": "string",
          "name": "deliverableUri",
          "type": "string"
        }
      ],
      "name": "WorkSubmitted",
      "type": "event"
    },
    {
      "inputs": [],
      "name": "BPS_DENOMINATOR",
      "outputs": [
        {
          "internalType": "uint256",
          "name": "",
          "type": "uint256"
        }
      ],
      "stateMutability": "view",
      "type": "function"
    },
    {
      "inputs": [],
      "name": "FEE_BPS",
      "outputs": [
        {
          "internalType": "uint256",
          "name": "",
          "type": "uint256"
        }
      ],
      "stateMutability": "view",
      "type": "function"
    },
    {
      "inputs": [
        {
          "internalType": "uint256",
          "name": "questId",
          "type": "uint256"
        }
      ],
      "name": "acceptQuest",
      "outputs": [],
      "stateMutability": "nonpayable",
      "type": "function"
    },
    {
      "inputs": [
        {
          "internalType": "uint256",
          "name": "questId",
          "type": "uint256"
        }
      ],
      "name": "approveAndPay",
      "outputs": [],
      "stateMutability": "nonpayable",
      "type": "function"
    },
    {
      "inputs": [
        {
          "internalType": "address",
          "name": "",
          "type": "address"
        }
      ],
      "name": "availableFees",
      "outputs": [
        {
          "internalType": "uint256",
          "name": "",
          "type": "uint256"
        }
      ],
      "stateMutability": "view",
      "type": "function"
    },
    {
      "inputs": [
        {
          "internalType": "uint256",
          "name": "questId",
          "type": "uint256"
        }
      ],
      "name": "cancelQuest",
      "outputs": [],
      "stateMutability": "nonpayable",
      "type": "function"
    },
    {
      "inputs": [
        {
          "internalType": "uint256",
          "name": "questId",
          "type": "uint256"
        }
      ],
      "name": "claimTimeoutPayout",
      "outputs": [],
      "stateMutability": "nonpayable",
      "type": "function"
    },
    {
      "inputs": [
        {
          "internalType": "string",
          "name": "title",
          "type": "string"
        },
        {
          "internalType": "string",
          "name": "description",
          "type": "string"
        },
        {
          "internalType": "uint256",
          "name": "reward",
          "type": "uint256"
        },
        {
          "internalType": "uint256",
          "name": "acceptDeadline",
          "type": "uint256"
        },
        {
          "internalType": "uint256",
          "name": "reviewPeriod",
          "type": "uint256"
        },
        {
          "internalType": "address",
          "name": "token",
          "type": "address"
        }
      ],
      "name": "createQuest",
      "outputs": [
        {
          "internalType": "uint256",
          "name": "questId",
          "type": "uint256"
        }
      ],
      "stateMutability": "payable",
      "type": "function"
    },
    {
      "inputs": [
        {
          "internalType": "address",
          "name": "token",
          "type": "address"
        }
      ],
      "name": "getAvailableFees",
      "outputs": [
        {
          "internalType": "uint256",
          "name": "",
          "type": "uint256"
        }
      ],
      "stateMutability": "view",
      "type": "function"
    },
    {
      "inputs": [
        {
          "internalType": "uint256",
          "name": "questId",
          "type": "uint256"
        }
      ],
      "name": "getQuest",
      "outputs": [
        {
          "internalType": "address",
          "name": "poster",
          "type": "address"
        },
        {
          "internalType": "address",
          "name": "worker",
          "type": "address"
        },
        {
          "internalType": "string",
          "name": "title",
          "type": "string"
        },
        {
          "internalType": "string",
          "name": "description",
          "type": "string"
        },
        {
          "internalType": "uint256",
          "name": "reward",
          "type": "uint256"
        },
        {
          "internalType": "address",
          "name": "token",
          "type": "address"
        },
        {
          "internalType": "uint256",
          "name": "acceptDeadline",
          "type": "uint256"
        },
        {
          "internalType": "uint256",
          "name": "reviewPeriod",
          "type": "uint256"
        },
        {
          "internalType": "uint256",
          "name": "reviewDeadline",
          "type": "uint256"
        },
        {
          "internalType": "uint8",
          "name": "status",
          "type": "uint8"
        },
        {
          "internalType": "string",
          "name": "deliverableUri",
          "type": "string"
        }
      ],
      "stateMutability": "view",
      "type": "function"
    },
    {
      "inputs": [],
      "name": "owner",
      "outputs": [
        {
          "internalType": "address",
          "name": "",
          "type": "address"
        }
      ],
      "stateMutability": "view",
      "type": "function"
    },
    {
      "inputs": [],
      "name": "questCount",
      "outputs": [
        {
          "internalType": "uint256",
          "name": "",
          "type": "uint256"
        }
      ],
      "stateMutability": "view",
      "type": "function"
    },
    {
      "inputs": [
        {
          "internalType": "uint256",
          "name": "questId",
          "type": "uint256"
        }
      ],
      "name": "refundPoster",
      "outputs": [],
      "stateMutability": "nonpayable",
      "type": "function"
    },
    {
      "inputs": [],
      "name": "renounceOwnership",
      "outputs": [],
      "stateMutability": "nonpayable",
      "type": "function"
    },
    {
      "inputs": [
        {
          "internalType": "uint256",
          "name": "questId",
          "type": "uint256"
        },
        {
          "internalType": "string",
          "name": "deliverableUri",
          "type": "string"
        }
      ],
      "name": "submitWork",
      "outputs": [],
      "stateMutability": "nonpayable",
      "type": "function"
    },
    {
      "inputs": [
        {
          "internalType": "address",
          "name": "newOwner",
          "type": "address"
        }
      ],
      "name": "transferOwnership",
      "outputs": [],
      "stateMutability": "nonpayable",
      "type": "function"
    },
    {
      "inputs": [
        {
          "internalType": "address",
          "name": "token",
          "type": "address"
        }
      ],
      "name": "withdrawFees",
      "outputs": [],
      "stateMutability": "nonpayable",
      "type": "function"
    }
  ],
  "bytecode": "0x608060405234801561001057600080fd5b503360016100306100256100be60201b60201c565b6100e960201b60201c565b60000181905550600073ffffffffffffffffffffffffffffffffffffffff168173ffffffffffffffffffffffffffffffffffffffff16036100a95760006040517f1e4fbdf70000000000000000000000000000000000000000000000000000000081526004016100a091906101f8565b60405180910390fd5b6100b8816100f360201b60201c565b50610213565b60007f9b779b17422d0df92223018b32b4d1fa46e071723d6817e2486d003becc55f0060001b905090565b6000819050919050565b60008060009054906101000a900473ffffffffffffffffffffffffffffffffffffffff169050816000806101000a81548173ffffffffffffffffffffffffffffffffffffffff021916908373ffffffffffffffffffffffffffffffffffffffff1602179055508173ffffffffffffffffffffffffffffffffffffffff168173ffffffffffffffffffffffffffffffffffffffff167f8be0079c531659141344cd1fd0a4f28419497f9722a3daafe3b4186f6b6457e060405160405180910390a35050565b600073ffffffffffffffffffffffffffffffffffffffff82169050919050565b60006101e2826101b7565b9050919050565b6101f2816101d7565b82525050565b600060208201905061020d60008301846101e9565b92915050565b6131d8806102226000396000f3fe6080604052600436106100fd5760003560e01c80638da5cb5b11610095578063bf333f2c11610064578063bf333f2c1461032d578063da8accf914610358578063e1a4521814610381578063f2fde38b146103ac578063fe90ff7d146103d5576100fd565b80638da5cb5b146102735780639456922f1461029e5780639c106ede146102c7578063a1d48094146102f0576100fd565b8063337e1bda116100d1578063337e1bda146101ba5780633970ab43146101ea57806349f86f3414610215578063715018a61461025c576100fd565b80627a94c114610102578063078970071461013f578063139f399a14610168578063164e68de14610191575b600080fd5b34801561010e57600080fd5b5061012960048036038101906101249190612054565b6103fe565b604051610136919061209a565b60405180910390f35b34801561014b57600080fd5b50610166600480360381019061016191906120e1565b610447565b005b34801561017457600080fd5b5061018f600480360381019061018a91906120e1565b610585565b005b34801561019d57600080fd5b506101b860048036038101906101b39190612054565b6107a4565b005b6101d460048036038101906101cf9190612173565b61089e565b6040516101e1919061209a565b60405180910390f35b3480156101f657600080fd5b506101ff610df6565b60405161020c919061209a565b60405180910390f35b34801561022157600080fd5b5061023c600480360381019061023791906120e1565b610dfc565b6040516102539b9a999897969594939291906122fd565b60405180910390f35b34801561026857600080fd5b506102716110a1565b005b34801561027f57600080fd5b506102886110b5565b60405161029591906123bd565b60405180910390f35b3480156102aa57600080fd5b506102c560048036038101906102c091906120e1565b6110de565b005b3480156102d357600080fd5b506102ee60048036038101906102e991906120e1565b611262565b005b3480156102fc57600080fd5b5061031760048036038101906103129190612054565b6114c9565b604051610324919061209a565b60405180910390f35b34801561033957600080fd5b506103426114e1565b60405161034f919061209a565b60405180910390f35b34801561036457600080fd5b5061037f600480360381019061037a91906123d8565b6114e7565b005b34801561038d57600080fd5b506103966116f0565b6040516103a3919061209a565b60405180910390f35b3480156103b857600080fd5b506103d360048036038101906103ce9190612054565b6116f6565b005b3480156103e157600080fd5b506103fc60048036038101906103f791906120e1565b61177c565b005b6000600360008373ffffffffffffffffffffffffffffffffffffffff1673ffffffffffffffffffffffffffffffffffffffff168152602001908152602001600020549050919050565b61044f611962565b60006002600083815260200190815260200160002090506002600581111561047a57610479612438565b5b81600a0160009054906101000a900460ff16600581111561049e5761049d612438565b5b146104de576040517f08c379a00000000000000000000000000000000000000000000000000000000081526004016104d5906124b3565b60405180910390fd5b8060000160009054906101000a900473ffffffffffffffffffffffffffffffffffffffff1673ffffffffffffffffffffffffffffffffffffffff163373ffffffffffffffffffffffffffffffffffffffff1614610570576040517f08c379a00000000000000000000000000000000000000000000000000000000081526004016105679061251f565b60405180910390fd5b61057982611985565b50610582611b46565b50565b6000600260008381526020019081526020016000209050600060058111156105b0576105af612438565b5b81600a0160009054906101000a900460ff1660058111156105d4576105d3612438565b5b14610614576040517f08c379a000000000000000000000000000000000000000000000000000000000815260040161060b9061258b565b60405180910390fd5b8060060154421061065a576040517f08c379a0000000000000000000000000000000000000000000000000000000008152600401610651906125f7565b60405180910390fd5b8060000160009054906101000a900473ffffffffffffffffffffffffffffffffffffffff1673ffffffffffffffffffffffffffffffffffffffff163373ffffffffffffffffffffffffffffffffffffffff16036106ec576040517f08c379a00000000000000000000000000000000000000000000000000000000081526004016106e390612663565b60405180910390fd5b338160010160006101000a81548173ffffffffffffffffffffffffffffffffffffffff021916908373ffffffffffffffffffffffffffffffffffffffff160217905550600181600a0160006101000a81548160ff0219169083600581111561075757610756612438565b5b02179055503373ffffffffffffffffffffffffffffffffffffffff16827f7d422f3e3149564cf96cfeab23ae433b6b1d7259c2873096244209f9b40befee60405160405180910390a35050565b6107ac611b61565b6107b4611962565b6000600360008373ffffffffffffffffffffffffffffffffffffffff1673ffffffffffffffffffffffffffffffffffffffff1681526020019081526020016000205490506000811161083b576040517f08c379a0000000000000000000000000000000000000000000000000000000008152600401610832906126cf565b60405180910390fd5b6000600360008473ffffffffffffffffffffffffffffffffffffffff1673ffffffffffffffffffffffffffffffffffffffff168152602001908152602001600020819055506108928261088c6110b5565b83611be8565b5061089b611b46565b50565b60006108a8611962565b600089899050116108ee576040517f08c379a00000000000000000000000000000000000000000000000000000000081526004016108e59061273b565b60405180910390fd5b60008511610931576040517f08c379a0000000000000000000000000000000000000000000000000000000008152600401610928906127a7565b60405180910390fd5b428411610973576040517f08c379a000000000000000000000000000000000000000000000000000000000815260040161096a90612813565b60405180910390fd5b600083116109b6576040517f08c379a00000000000000000000000000000000000000000000000000000000081526004016109ad9061287f565b60405180910390fd5b600160008154809291906109c9906128ce565b91905055506001549050600073ffffffffffffffffffffffffffffffffffffffff168273ffffffffffffffffffffffffffffffffffffffff1603610a4e57843414610a49576040517f08c379a0000000000000000000000000000000000000000000000000000000008152600401610a4090612962565b60405180910390fd5b610abf565b60003414610a91576040517f08c379a0000000000000000000000000000000000000000000000000000000008152600401610a88906129ce565b60405180910390fd5b610abe3330878573ffffffffffffffffffffffffffffffffffffffff16611cff909392919063ffffffff16565b5b6040518061018001604052803373ffffffffffffffffffffffffffffffffffffffff168152602001600073ffffffffffffffffffffffffffffffffffffffff1681526020018a8a8080601f016020809104026020016040519081016040528093929190818152602001838380828437600081840152601f19601f82011690508083019250505050505050815260200188888080601f016020809104026020016040519081016040528093929190818152602001838380828437600081840152601f19601f8201169050808301925050505050505081526020018681526020018373ffffffffffffffffffffffffffffffffffffffff168152602001858152602001848152602001600081526020016000815260200160006005811115610be857610be7612438565b5b8152602001604051806020016040528060008152508152506002600083815260200190815260200160002060008201518160000160006101000a81548173ffffffffffffffffffffffffffffffffffffffff021916908373ffffffffffffffffffffffffffffffffffffffff16021790555060208201518160010160006101000a81548173ffffffffffffffffffffffffffffffffffffffff021916908373ffffffffffffffffffffffffffffffffffffffff1602179055506040820151816002019081610cb69190612c29565b506060820151816003019081610ccc9190612c29565b506080820151816004015560a08201518160050160006101000a81548173ffffffffffffffffffffffffffffffffffffffff021916908373ffffffffffffffffffffffffffffffffffffffff16021790555060c0820151816006015560e082015181600701556101008201518160080155610120820151816009015561014082015181600a0160006101000a81548160ff02191690836005811115610d7457610d73612438565b5b021790555061016082015181600b019081610d8f9190612c29565b509050503373ffffffffffffffffffffffffffffffffffffffff16817f8611ab57bc82cba189efe93ed2768ca2aee3cfbff8227866a8b3400d0d14ed0687604051610dda919061209a565b60405180910390a3610dea611b46565b98975050505050505050565b60015481565b60008060608060008060008060008060606000600260008e815260200190815260200160002090508060000160009054906101000a900473ffffffffffffffffffffffffffffffffffffffff168160010160009054906101000a900473ffffffffffffffffffffffffffffffffffffffff16826002018360030184600401548560050160009054906101000a900473ffffffffffffffffffffffffffffffffffffffff1686600601548760070154886008015489600a0160009054906101000a900460ff166005811115610ed357610ed2612438565b5b8a600b01888054610ee390612a4c565b80601f0160208091040260200160405190810160405280929190818152602001828054610f0f90612a4c565b8015610f5c5780601f10610f3157610100808354040283529160200191610f5c565b820191906000526020600020905b815481529060010190602001808311610f3f57829003601f168201915b50505050509850878054610f6f90612a4c565b80601f0160208091040260200160405190810160405280929190818152602001828054610f9b90612a4c565b8015610fe85780601f10610fbd57610100808354040283529160200191610fe8565b820191906000526020600020905b815481529060010190602001808311610fcb57829003601f168201915b50505050509750808054610ffb90612a4c565b80601f016020809104026020016040519081016040528092919081815260200182805461102790612a4c565b80156110745780601f1061104957610100808354040283529160200191611074565b820191906000526020600020905b81548152906001019060200180831161105757829003601f168201915b505050505090509b509b509b509b509b509b509b509b509b509b509b505091939597999b90929496989a50565b6110a9611b61565b6110b36000611d54565b565b60008060009054906101000a900473ffffffffffffffffffffffffffffffffffffffff16905090565b6110e6611962565b60006002600083815260200190815260200160002090506002600581111561111157611110612438565b5b81600a0160009054906101000a900460ff16600581111561113557611134612438565b5b14611175576040517f08c379a000000000000000000000000000000000000000000000000000000000815260040161116c906124b3565b60405180910390fd5b8060010160009054906101000a900473ffffffffffffffffffffffffffffffffffffffff1673ffffffffffffffffffffffffffffffffffffffff163373ffffffffffffffffffffffffffffffffffffffff1614611207576040517f08c379a00000000000000000000000000000000000000000000000000000000081526004016111fe90612d47565b60405180910390fd5b8060080154421161124d576040517f08c379a000000000000000000000000000000000000000000000000000000000815260040161124490612db3565b60405180910390fd5b61125682611985565b5061125f611b46565b50565b61126a611962565b60006002600083815260200190815260200160002090506002600581111561129557611294612438565b5b81600a0160009054906101000a900460ff1660058111156112b9576112b8612438565b5b146112f9576040517f08c379a00000000000000000000000000000000000000000000000000000000081526004016112f0906124b3565b60405180910390fd5b8060000160009054906101000a900473ffffffffffffffffffffffffffffffffffffffff1673ffffffffffffffffffffffffffffffffffffffff163373ffffffffffffffffffffffffffffffffffffffff161461138b576040517f08c379a00000000000000000000000000000000000000000000000000000000081526004016113829061251f565b60405180910390fd5b806008015442116113d1576040517f08c379a00000000000000000000000000000000000000000000000000000000081526004016113c890612db3565b60405180910390fd5b600581600a0160006101000a81548160ff021916908360058111156113f9576113f8612438565b5b02179055506114558160050160009054906101000a900473ffffffffffffffffffffffffffffffffffffffff168260000160009054906101000a900473ffffffffffffffffffffffffffffffffffffffff168360040154611be8565b8060000160009054906101000a900473ffffffffffffffffffffffffffffffffffffffff1673ffffffffffffffffffffffffffffffffffffffff16827f45c00a1758fae5097a637c462442cd463480bb73a6fc938d2f59aed42b812b4560405160405180910390a3506114c6611b46565b50565b60036020528060005260406000206000915090505481565b61012c81565b60006002600085815260200190815260200160002090506001600581111561151257611511612438565b5b81600a0160009054906101000a900460ff16600581111561153657611535612438565b5b14611576576040517f08c379a000000000000000000000000000000000000000000000000000000000815260040161156d90612e1f565b60405180910390fd5b8060010160009054906101000a900473ffffffffffffffffffffffffffffffffffffffff1673ffffffffffffffffffffffffffffffffffffffff163373ffffffffffffffffffffffffffffffffffffffff1614611608576040517f08c379a00000000000000000000000000000000000000000000000000000000081526004016115ff90612d47565b60405180910390fd5b6000838390501161164e576040517f08c379a000000000000000000000000000000000000000000000000000000000815260040161164590612e8b565b60405180910390fd5b828282600b019182611661929190612eb6565b5042816009018190555080600701544261167b9190612f86565b8160080181905550600281600a0160006101000a81548160ff021916908360058111156116ab576116aa612438565b5b0217905550837f3822c71b106c7c1dabf7f076e68c9bd98c45d0cd0d073f4dcdaf422a0fe5584784846040516116e2929190612ff6565b60405180910390a250505050565b61271081565b6116fe611b61565b600073ffffffffffffffffffffffffffffffffffffffff168173ffffffffffffffffffffffffffffffffffffffff16036117705760006040517f1e4fbdf700000000000000000000000000000000000000000000000000000000815260040161176791906123bd565b60405180910390fd5b61177981611d54565b50565b611784611962565b6000600260008381526020019081526020016000209050600060058111156117af576117ae612438565b5b81600a0160009054906101000a900460ff1660058111156117d3576117d2612438565b5b14611813576040517f08c379a000000000000000000000000000000000000000000000000000000000815260040161180a9061258b565b60405180910390fd5b8060000160009054906101000a900473ffffffffffffffffffffffffffffffffffffffff1673ffffffffffffffffffffffffffffffffffffffff163373ffffffffffffffffffffffffffffffffffffffff16146118a5576040517f08c379a000000000000000000000000000000000000000000000000000000000815260040161189c9061251f565b60405180910390fd5b600481600a0160006101000a81548160ff021916908360058111156118cd576118cc612438565b5b02179055506119298160050160009054906101000a900473ffffffffffffffffffffffffffffffffffffffff168260000160009054906101000a900473ffffffffffffffffffffffffffffffffffffffff168360040154611be8565b817f8be3723411cc8577ee6cd118cbdbcefd5a0d748b4ce31edbbbad3b8a013cc79960405160405180910390a25061195f611b46565b50565b61196a611e18565b600261197c611977611e59565b611e84565b60000181905550565b6000600260008381526020019081526020016000209050600061271061012c83600401546119b3919061301a565b6119bd919061308b565b905060008183600401546119d191906130bc565b905081600360008560050160009054906101000a900473ffffffffffffffffffffffffffffffffffffffff1673ffffffffffffffffffffffffffffffffffffffff1673ffffffffffffffffffffffffffffffffffffffff1681526020019081526020016000206000828254611a469190612f86565b92505081905550600383600a0160006101000a81548160ff02191690836005811115611a7557611a74612438565b5b0217905550611acd8360050160009054906101000a900473ffffffffffffffffffffffffffffffffffffffff168460010160009054906101000a900473ffffffffffffffffffffffffffffffffffffffff1683611be8565b8260010160009054906101000a900473ffffffffffffffffffffffffffffffffffffffff1673ffffffffffffffffffffffffffffffffffffffff16847fcb2c52dd8818d9521b16e6d9c1eafc75e9c0857efe79bd0df13ad93e4da6921383604051611b38919061209a565b60405180910390a350505050565b6001611b58611b53611e59565b611e84565b60000181905550565b611b69611e8e565b73ffffffffffffffffffffffffffffffffffffffff16611b876110b5565b73ffffffffffffffffffffffffffffffffffffffff1614611be657611baa611e8e565b6040517f118cdaa7000000000000000000000000000000000000000000000000000000008152600401611bdd91906123bd565b60405180910390fd5b565b600073ffffffffffffffffffffffffffffffffffffffff168373ffffffffffffffffffffffffffffffffffffffff1603611cce5760008273ffffffffffffffffffffffffffffffffffffffff1682604051611c4290613121565b60006040518083038185875af1925050503d8060008114611c7f576040519150601f19603f3d011682016040523d82523d6000602084013e611c84565b606091505b5050905080611cc8576040517f08c379a0000000000000000000000000000000000000000000000000000000008152600401611cbf90613182565b60405180910390fd5b50611cfa565b611cf982828573ffffffffffffffffffffffffffffffffffffffff16611e969092919063ffffffff16565b5b505050565b611d0d848484846001611ee9565b611d4e57836040517f5274afe7000000000000000000000000000000000000000000000000000000008152600401611d4591906123bd565b60405180910390fd5b50505050565b60008060009054906101000a900473ffffffffffffffffffffffffffffffffffffffff169050816000806101000a81548173ffffffffffffffffffffffffffffffffffffffff021916908373ffffffffffffffffffffffffffffffffffffffff1602179055508173ffffffffffffffffffffffffffffffffffffffff168173ffffffffffffffffffffffffffffffffffffffff167f8be0079c531659141344cd1fd0a4f28419497f9722a3daafe3b4186f6b6457e060405160405180910390a35050565b611e20611f64565b15611e57576040517f3ee5aeb500000000000000000000000000000000000000000000000000000000815260040160405180910390fd5b565b60007f9b779b17422d0df92223018b32b4d1fa46e071723d6817e2486d003becc55f0060001b905090565b6000819050919050565b600033905090565b611ea38383836001611f82565b611ee457826040517f5274afe7000000000000000000000000000000000000000000000000000000008152600401611edb91906123bd565b60405180910390fd5b505050565b6000806323b872dd60e01b90506040518160005260001960601c871660045260001960601c8616602452846044526020600060646000808c5af192506001600051148316611f50578383151615611f43573d6000823e3d81fd5b6000883b113d1516831692505b806040526000606052505095945050505050565b60006002611f78611f73611e59565b611e84565b6000015414905090565b60008063a9059cbb60e01b90506040518160005260001960601c8616600452846024526020600060446000808b5af192506001600051148316611fde578383151615611fd1573d6000823e3d81fd5b6000873b113d1516831692505b806040525050949350505050565b600080fd5b600080fd5b600073ffffffffffffffffffffffffffffffffffffffff82169050919050565b600061202182611ff6565b9050919050565b61203181612016565b811461203c57600080fd5b50565b60008135905061204e81612028565b92915050565b60006020828403121561206a57612069611fec565b5b60006120788482850161203f565b91505092915050565b6000819050919050565b61209481612081565b82525050565b60006020820190506120af600083018461208b565b92915050565b6120be81612081565b81146120c957600080fd5b50565b6000813590506120db816120b5565b92915050565b6000602082840312156120f7576120f6611fec565b5b6000612105848285016120cc565b91505092915050565b600080fd5b600080fd5b600080fd5b60008083601f8401126121335761213261210e565b5b8235905067ffffffffffffffff8111156121505761214f612113565b5b60208301915083600182028301111561216c5761216b612118565b5b9250929050565b60008060008060008060008060c0898b03121561219357612192611fec565b5b600089013567ffffffffffffffff8111156121b1576121b0611ff1565b5b6121bd8b828c0161211d565b9850985050602089013567ffffffffffffffff8111156121e0576121df611ff1565b5b6121ec8b828c0161211d565b965096505060406121ff8b828c016120cc565b94505060606122108b828c016120cc565b93505060806122218b828c016120cc565b92505060a06122328b828c0161203f565b9150509295985092959890939650565b61224b81612016565b82525050565b600081519050919050565b600082825260208201905092915050565b60005b8381101561228b578082015181840152602081019050612270565b60008484015250505050565b6000601f19601f8301169050919050565b60006122b382612251565b6122bd818561225c565b93506122cd81856020860161226d565b6122d681612297565b840191505092915050565b600060ff82169050919050565b6122f7816122e1565b82525050565b600061016082019050612313600083018e612242565b612320602083018d612242565b8181036040830152612332818c6122a8565b90508181036060830152612346818b6122a8565b9050612355608083018a61208b565b61236260a0830189612242565b61236f60c083018861208b565b61237c60e083018761208b565b61238a61010083018661208b565b6123986101208301856122ee565b8181036101408301526123ab81846122a8565b90509c9b505050505050505050505050565b60006020820190506123d26000830184612242565b92915050565b6000806000604084860312156123f1576123f0611fec565b5b60006123ff868287016120cc565b935050602084013567ffffffffffffffff8111156124205761241f611ff1565b5b61242c8682870161211d565b92509250509250925092565b7f4e487b7100000000000000000000000000000000000000000000000000000000600052602160045260246000fd5b7f4e6f74207375626d697474656400000000000000000000000000000000000000600082015250565b600061249d600d8361225c565b91506124a882612467565b602082019050919050565b600060208201905081810360008301526124cc81612490565b9050919050565b7f4f6e6c7920706f73746572000000000000000000000000000000000000000000600082015250565b6000612509600b8361225c565b9150612514826124d3565b602082019050919050565b60006020820190508181036000830152612538816124fc565b9050919050565b7f4e6f74206f70656e000000000000000000000000000000000000000000000000600082015250565b600061257560088361225c565b91506125808261253f565b602082019050919050565b600060208201905081810360008301526125a481612568565b9050919050565b7f416363657074616e636520636c6f736564000000000000000000000000000000600082015250565b60006125e160118361225c565b91506125ec826125ab565b602082019050919050565b60006020820190508181036000830152612610816125d4565b9050919050565b7f506f737465722063616e6e6f7420616363657074000000000000000000000000600082015250565b600061264d60148361225c565b915061265882612617565b602082019050919050565b6000602082019050818103600083015261267c81612640565b9050919050565b7f4e6f206665657300000000000000000000000000000000000000000000000000600082015250565b60006126b960078361225c565b91506126c482612683565b602082019050919050565b600060208201905081810360008301526126e8816126ac565b9050919050565b7f456d707479207469746c65000000000000000000000000000000000000000000600082015250565b6000612725600b8361225c565b9150612730826126ef565b602082019050919050565b6000602082019050818103600083015261275481612718565b9050919050565b7f496e76616c696420726577617264000000000000000000000000000000000000600082015250565b6000612791600e8361225c565b915061279c8261275b565b602082019050919050565b600060208201905081810360008301526127c081612784565b9050919050565b7f496e76616c696420646561646c696e6500000000000000000000000000000000600082015250565b60006127fd60108361225c565b9150612808826127c7565b602082019050919050565b6000602082019050818103600083015261282c816127f0565b9050919050565b7f496e76616c69642072657669657720706572696f640000000000000000000000600082015250565b600061286960158361225c565b915061287482612833565b602082019050919050565b600060208201905081810360008301526128988161285c565b9050919050565b7f4e487b7100000000000000000000000000000000000000000000000000000000600052601160045260246000fd5b60006128d982612081565b91507fffffffffffffffffffffffffffffffffffffffffffffffffffffffffffffffff820361290b5761290a61289f565b5b600182019050919050565b7f496e636f72726563742045544820616d6f756e74000000000000000000000000600082015250565b600061294c60148361225c565b915061295782612916565b602082019050919050565b6000602082019050818103600083015261297b8161293f565b9050919050565b7f446f206e6f742073656e64204554480000000000000000000000000000000000600082015250565b60006129b8600f8361225c565b91506129c382612982565b602082019050919050565b600060208201905081810360008301526129e7816129ab565b9050919050565b7f4e487b7100000000000000000000000000000000000000000000000000000000600052604160045260246000fd5b7f4e487b7100000000000000000000000000000000000000000000000000000000600052602260045260246000fd5b60006002820490506001821680612a6457607f821691505b602082108103612a7757612a76612a1d565b5b50919050565b60008190508160005260206000209050919050565b60006020601f8301049050919050565b600082821b905092915050565b600060088302612adf7fffffffffffffffffffffffffffffffffffffffffffffffffffffffffffffffff82612aa2565b612ae98683612aa2565b95508019841693508086168417925050509392505050565b6000819050919050565b6000612b26612b21612b1c84612081565b612b01565b612081565b9050919050565b6000819050919050565b612b4083612b0b565b612b54612b4c82612b2d565b848454612aaf565b825550505050565b600090565b612b69612b5c565b612b74818484612b37565b505050565b5b81811015612b9857612b8d600082612b61565b600181019050612b7a565b5050565b601f821115612bdd57612bae81612a7d565b612bb784612a92565b81016020851015612bc6578190505b612bda612bd285612a92565b830182612b79565b50505b505050565b600082821c905092915050565b6000612c0060001984600802612be2565b1980831691505092915050565b6000612c198383612bef565b9150826002028217905092915050565b612c3282612251565b67ffffffffffffffff811115612c4b57612c4a6129ee565b5b612c558254612a4c565b612c60828285612b9c565b600060209050601f831160018114612c935760008415612c81578287015190505b612c8b8582612c0d565b865550612cf3565b601f198416612ca186612a7d565b60005b82811015612cc957848901518255600182019150602085019450602081019050612ca4565b86831015612ce65784890151612ce2601f891682612bef565b8355505b6001600288020188555050505b505050505050565b7f4f6e6c7920776f726b6572000000000000000000000000000000000000000000600082015250565b6000612d31600b8361225c565b9150612d3c82612cfb565b602082019050919050565b60006020820190508181036000830152612d6081612d24565b9050919050565b7f52657669657720706572696f6420616374697665000000000000000000000000600082015250565b6000612d9d60148361225c565b9150612da882612d67565b602082019050919050565b60006020820190508181036000830152612dcc81612d90565b9050919050565b7f4e6f742061636365707465640000000000000000000000000000000000000000600082015250565b6000612e09600c8361225c565b9150612e1482612dd3565b602082019050919050565b60006020820190508181036000830152612e3881612dfc565b9050919050565b7f456d7074792064656c6976657261626c65000000000000000000000000000000600082015250565b6000612e7560118361225c565b9150612e8082612e3f565b602082019050919050565b60006020820190508181036000830152612ea481612e68565b9050919050565b600082905092915050565b612ec08383612eab565b67ffffffffffffffff811115612ed957612ed86129ee565b5b612ee38254612a4c565b612eee828285612b9c565b6000601f831160018114612f1d5760008415612f0b578287013590505b612f158582612c0d565b865550612f7d565b601f198416612f2b86612a7d565b60005b82811015612f5357848901358255600182019150602085019450602081019050612f2e565b86831015612f705784890135612f6c601f891682612bef565b8355505b6001600288020188555050505b50505050505050565b6000612f9182612081565b9150612f9c83612081565b9250828201905080821115612fb457612fb361289f565b5b92915050565b82818337600083830152505050565b6000612fd5838561225c565b9350612fe2838584612fba565b612feb83612297565b840190509392505050565b60006020820190508181036000830152613011818486612fc9565b90509392505050565b600061302582612081565b915061303083612081565b925082820261303e81612081565b915082820484148315176130555761305461289f565b5b5092915050565b7f4e487b7100000000000000000000000000000000000000000000000000000000600052601260045260246000fd5b600061309682612081565b91506130a183612081565b9250826130b1576130b061305c565b5b828204905092915050565b60006130c782612081565b91506130d283612081565b92508282039050818111156130ea576130e961289f565b5b92915050565b600081905092915050565b50565b600061310b6000836130f0565b9150613116826130fb565b600082019050919050565b600061312c826130fe565b9150819050919050565b7f455448207472616e73666572206661696c656400000000000000000000000000600082015250565b600061316c60138361225c565b915061317782613136565b602082019050919050565b6000602082019050818103600083015261319b8161315f565b905091905056fea2646970667358221220c480ccb1d66363bdbb08e553d065e3f8c478a741c7f25056146b97d4dcd6395164736f6c634300081e0033",
  "linkReferences": {},
  "deployedLinkReferences": {}
}